{
  "address": "0x5FbDB2315678afecb367f032d93F642f64180aa3",
  "abi": [
    {
      "inputs": [],
      "stateMutability": "nonpayable",
      "type": "constructor"
    },
    {
      "anonymous": false,
      "inputs": [
        {
          "indexed": true,
          "internalType": "address",
          "name": "owner",
          "type": "address"
        },
        {
          "indexed": true,
          "internalType": "address",
          "name": "approved",
          "type": "address"
        },
        {
          "indexed": true,
          "internalType": "uint256",
          "name": "tokenId",
          "type": "uint256"
        }
      ],
      "name": "Approval",
      "type": "event"
    },
    {
      "anonymous": false,
      "inputs": [
        {
          "indexed": true,
          "internalType": "address",
          "name": "owner",
          "type": "address"
        },
        {
          "indexed": true,
          "internalType": "address",
          "name": "operator",
          "type": "address"
        },
        {
          "indexed": false,
          "internalType": "bool",
          "name": "approved",
          "type": "bool"
        }
      ],
      "name": "ApprovalForAll",
      "type": "event"
    },
    {
      "anonymous": false,
      "inputs": [
        {
          "indexed": false,
          "internalType": "address",
          "name": "owner",
          "type": "address"
        },
        {
          "indexed": false,
          "internalType": "uint256",
          "name": "createdTime",
          "type": "uint256"
        },
        {
          "indexed": false,
          "internalType": "uint256",
          "name": "startTime",
          "type": "uint256"
        },
        {
          "indexed": false,
          "internalType": "uint256",
          "name": "endTime",
          "type": "uint256"
        },
        {
          "indexed": false,
          "internalType": "string",
          "name": "id",
          "type": "string"
        },
        {
          "indexed": false,
          "internalType": "uint256",
          "name": "onChainId",
          "type": "uint256"
        }
      ],
      "name": "EventCreated",
      "type": "event"
    },
    {
      "anonymous": false,
      "inputs": [
        {
          "indexed": false,
          "internalType": "uint256",
          "name": "id",
          "type": "uint256"
        }
      ],
      "name": "EventDeleted",
      "type": "event"
    },
    {
      "anonymous": false,
      "inputs": [
        {
          "indexed": false,
          "internalType": "uint256",
          "name": "id",
          "type": "uint256"
        },
        {
          "indexed": false,
          "internalType": "uint256",
          "name": "startTime",
          "type": "uint256"
        },
        {
          "indexed": false,
          "internalType": "uint256",
          "name": "endTime",
          "type": "uint256"
        }
      ],
      "name": "EventUpdated",
      "type": "event"
    },
    {
      "anonymous": false,
      "inputs": [
        {
          "indexed": true,
          "internalType": "uint256",
          "name": "tokenId",
          "type": "uint256"
        },
        {
          "indexed": false,
          "internalType": "address",
          "name": "seller",
          "type": "address"
        },
        {
          "indexed": false,
          "internalType": "address",
          "name": "owner",
          "type": "address"
        },
        {
          "indexed": false,
          "internalType": "uint256",
          "name": "price",
          "type": "uint256"
        },
        {
          "indexed": false,
          "internalType": "bool",
          "name": "sold",
          "type": "bool"
        },
        {
          "indexed": false,
          "internalType": "uint256",
          "name": "onChainId",
          "type": "uint256"
        }
      ],
      "name": "MarketItemCreated",
      "type": "event"
    },
    {
      "anonymous": false,
      "inputs": [
        {
          "indexed": false,
          "internalType": "uint256",
          "name": "onChainId",
          "type": "uint256"
        }
      ],
      "name": "MarketItemSold",
      "type": "event"
    },
    {
      "anonymous": false,
      "inputs": [
        {
          "indexed": true,
          "internalType": "address",
          "name": "previousOwner",
          "type": "address"
        },
        {
          "indexed": true,
          "internalType": "address",
          "name": "newOwner",
          "type": "address"
        }
      ],
      "name": "OwnershipTransferred",
      "type": "event"
    },
    {
      "anonymous": false,
      "inputs": [
        {
          "indexed": false,
          "internalType": "uint256",
          "name": "tokenId",
          "type": "uint256"
        },
        {
          "indexed": false,
          "internalType": "uint256",
          "name": "ticketTypeOnChainId",
          "type": "uint256"
        },
        {
          "indexed": false,
          "internalType": "address",
          "name": "ownerAddress",
          "type": "address"
        },
        {
          "indexed": false,
          "internalType": "string",
          "name": "ticketTypeId",
          "type": "string"
        },
        {
          "indexed": false,
          "internalType": "int256",
          "name": "limitCurrent",
          "type": "int256"
        }
      ],
      "name": "TicketSold",
      "type": "event"
    },
    {
      "anonymous": false,
      "inputs": [
        {
          "indexed": false,
          "internalType": "uint256",
          "name": "eventOnChainId",
          "type": "uint256"
        },
        {
          "indexed": false,
          "internalType": "uint256",
          "name": "createdTime",
          "type": "uint256"
        },
        {
          "indexed": false,
          "internalType": "string",
          "name": "id",
          "type": "string"
        },
        {
          "indexed": false,
          "internalType": "uint256",
          "name": "price",
          "type": "uint256"
        },
        {
          "indexed": false,
          "internalType": "uint256",
          "name": "startSellingTime",
          "type": "uint256"
        },
        {
          "indexed": false,
          "internalType": "uint256",
          "name": "endSellingTime",
          "type": "uint256"
        },
        {
          "indexed": false,
          "internalType": "int256",
          "name": "totalLimit",
          "type": "int256"
        },
        {
          "indexed": false,
          "internalType": "int256",
          "name": "currentLimit",
          "type": "int256"
        },
        {
          "indexed": false,
          "internalType": "string",
          "name": "eventId",
          "type": "string"
        },
        {
          "indexed": false,
          "internalType": "uint256",
          "name": "onChainId",
          "type": "uint256"
        }
      ],
      "name": "TicketTypeCreated",
      "type": "event"
    },
    {
      "anonymous": false,
      "inputs": [
        {
          "indexed": true,
          "internalType": "address",
          "name": "from",
          "type": "address"
        },
        {
          "indexed": true,
          "internalType": "address",
          "name": "to",
          "type": "address"
        },
        {
          "indexed": true,
          "internalType": "uint256",
          "name": "tokenId",
          "type": "uint256"
        }
      ],
      "name": "Transfer",
      "type": "event"
    },
    {
      "inputs": [
        {
          "internalType": "address",
          "name": "to",
          "type": "address"
        },
        {
          "internalType": "uint256",
          "name": "tokenId",
          "type": "uint256"
        }
      ],
      "name": "approve",
      "outputs": [],
      "stateMutability": "nonpayable",
      "type": "function"
    },
    {
      "inputs": [
        {
          "internalType": "address",
          "name": "owner",
          "type": "address"
        }
      ],
      "name": "balanceOf",
      "outputs": [
        {
          "internalType": "uint256",
          "name": "",
          "type": "uint256"
        }
      ],
      "stateMutability": "view",
      "type": "function"
    },
    {
      "inputs": [
        {
          "internalType": "uint256",
          "name": "startTime",
          "type": "uint256"
        },
        {
          "internalType": "uint256",
          "name": "endTime",
          "type": "uint256"
        },
        {
          "internalType": "string",
          "name": "id",
          "type": "string"
        }
      ],
      "name": "createEvent",
      "outputs": [],
      "stateMutability": "nonpayable",
      "type": "function"
    },
    {
      "inputs": [
        {
          "internalType": "uint256",
          "name": "marketId",
          "type": "uint256"
        }
      ],
      "name": "createMarketSale",
      "outputs": [],
      "stateMutability": "payable",
      "type": "function"
    },
    {
      "inputs": [
        {
          "internalType": "uint256",
          "name": "eventId",
          "type": "uint256"
        },
        {
          "internalType": "string",
          "name": "id",
          "type": "string"
        },
        {
          "internalType": "uint256",
          "name": "price",
          "type": "uint256"
        },
        {
          "internalType": "uint256",
          "name": "startSellingTime",
          "type": "uint256"
        },
        {
          "internalType": "uint256",
          "name": "endSellingTime",
          "type": "uint256"
        },
        {
          "internalType": "int256",
          "name": "limit",
          "type": "int256"
        }
      ],
      "name": "createTicketType",
      "outputs": [],
      "stateMutability": "nonpayable",
      "type": "function"
    },
    {
      "inputs": [],
      "name": "createToken",
      "outputs": [
        {
          "internalType": "uint256",
          "name": "",
          "type": "uint256"
        }
      ],
      "stateMutability": "nonpayable",
      "type": "function"
    },
    {
      "inputs": [],
      "name": "fetchItemsListed",
      "outputs": [
        {
          "components": [
            {
              "internalType": "uint256",
              "name": "tokenId",
              "type": "uint256"
            },
            {
              "internalType": "address payable",
              "name": "seller",
              "type": "address"
            },
            {
              "internalType": "address payable",
              "name": "owner",
              "type": "address"
            },
            {
              "internalType": "uint256",
              "name": "price",
              "type": "uint256"
            },
            {
              "internalType": "bool",
              "name": "sold",
              "type": "bool"
            }
          ],
          "internalType": "struct NFTTicketMarketplace.MarketItem[]",
          "name": "",
          "type": "tuple[]"
        }
      ],
      "stateMutability": "view",
      "type": "function"
    },
    {
      "inputs": [],
      "name": "fetchMarketItems",
      "outputs": [
        {
          "components": [
            {
              "internalType": "uint256",
              "name": "tokenId",
              "type": "uint256"
            },
            {
              "internalType": "address payable",
              "name": "seller",
              "type": "address"
            },
            {
              "internalType": "address payable",
              "name": "owner",
              "type": "address"
            },
            {
              "internalType": "uint256",
              "name": "price",
              "type": "uint256"
            },
            {
              "internalType": "bool",
              "name": "sold",
              "type": "bool"
            }
          ],
          "internalType": "struct NFTTicketMarketplace.MarketItem[]",
          "name": "",
          "type": "tuple[]"
        }
      ],
      "stateMutability": "view",
      "type": "function"
    },
    {
      "inputs": [],
      "name": "fetchMyNFTs",
      "outputs": [
        {
          "components": [
            {
              "internalType": "uint256",
              "name": "tokenId",
              "type": "uint256"
            },
            {
              "internalType": "address payable",
              "name": "seller",
              "type": "address"
            },
            {
              "internalType": "address payable",
              "name": "owner",
              "type": "address"
            },
            {
              "internalType": "uint256",
              "name": "price",
              "type": "uint256"
            },
            {
              "internalType": "bool",
              "name": "sold",
              "type": "bool"
            }
          ],
          "internalType": "struct NFTTicketMarketplace.MarketItem[]",
          "name": "",
          "type": "tuple[]"
        }
      ],
      "stateMutability": "view",
      "type": "function"
    },
    {
      "inputs": [
        {
          "internalType": "uint256",
          "name": "tokenId",
          "type": "uint256"
        }
      ],
      "name": "getApproved",
      "outputs": [
        {
          "internalType": "address",
          "name": "",
          "type": "address"
        }
      ],
      "stateMutability": "view",
      "type": "function"
    },
    {
      "inputs": [],
      "name": "getListingPrice",
      "outputs": [
        {
          "internalType": "uint256",
          "name": "",
          "type": "uint256"
        }
      ],
      "stateMutability": "view",
      "type": "function"
    },
    {
      "inputs": [
        {
          "internalType": "address",
          "name": "owner",
          "type": "address"
        },
        {
          "internalType": "address",
          "name": "operator",
          "type": "address"
        }
      ],
      "name": "isApprovedForAll",
      "outputs": [
        {
          "internalType": "bool",
          "name": "",
          "type": "bool"
        }
      ],
      "stateMutability": "view",
      "type": "function"
    },
    {
      "inputs": [],
      "name": "name",
      "outputs": [
        {
          "internalType": "string",
          "name": "",
          "type": "string"
        }
      ],
      "stateMutability": "view",
      "type": "function"
    },
    {
      "inputs": [],
      "name": "owner",
      "outputs": [
        {
          "internalType": "address",
          "name": "",
          "type": "address"
        }
      ],
      "stateMutability": "view",
      "type": "function"
    },
    {
      "inputs": [
        {
          "internalType": "uint256",
          "name": "tokenId",
          "type": "uint256"
        }
      ],
      "name": "ownerOf",
      "outputs": [
        {
          "internalType": "address",
          "name": "",
          "type": "address"
        }
      ],
      "stateMutability": "view",
      "type": "function"
    },
    {
      "inputs": [
        {
          "internalType": "uint256",
          "name": "ticketTypeId",
          "type": "uint256"
        }
      ],
      "name": "payForTicket",
      "outputs": [
        {
          "internalType": "uint256",
          "name": "",
          "type": "uint256"
        }
      ],
      "stateMutability": "payable",
      "type": "function"
    },
    {
      "inputs": [],
      "name": "renounceOwnership",
      "outputs": [],
      "stateMutability": "nonpayable",
      "type": "function"
    },
    {
      "inputs": [
        {
          "internalType": "uint256",
          "name": "tokenId",
          "type": "uint256"
        },
        {
          "internalType": "uint256",
          "name": "price",
          "type": "uint256"
        }
      ],
      "name": "resellToken",
      "outputs": [],
      "stateMutability": "payable",
      "type": "function"
    },
    {
      "inputs": [
        {
          "internalType": "address",
          "name": "from",
          "type": "address"
        },
        {
          "internalType": "address",
          "name": "to",
          "type": "address"
        },
        {
          "internalType": "uint256",
          "name": "tokenId",
          "type": "uint256"
        }
      ],
      "name": "safeTransferFrom",
      "outputs": [],
      "stateMutability": "nonpayable",
      "type": "function"
    },
    {
      "inputs": [
        {
          "internalType": "address",
          "name": "from",
          "type": "address"
        },
        {
          "internalType": "address",
          "name": "to",
          "type": "address"
        },
        {
          "internalType": "uint256",
          "name": "tokenId",
          "type": "uint256"
        },
        {
          "internalType": "bytes",
          "name": "_data",
          "type": "bytes"
        }
      ],
      "name": "safeTransferFrom",
      "outputs": [],
      "stateMutability": "nonpayable",
      "type": "function"
    },
    {
      "inputs": [
        {
          "internalType": "address",
          "name": "operator",
          "type": "address"
        },
        {
          "internalType": "bool",
          "name": "approved",
          "type": "bool"
        }
      ],
      "name": "setApprovalForAll",
      "outputs": [],
      "stateMutability": "nonpayable",
      "type": "function"
    },
    {
      "inputs": [
        {
          "internalType": "string",
          "name": "uri",
          "type": "string"
        }
      ],
      "name": "setBaseURI",
      "outputs": [],
      "stateMutability": "nonpayable",
      "type": "function"
    },
    {
      "inputs": [
        {
          "internalType": "bytes4",
          "name": "interfaceId",
          "type": "bytes4"
        }
      ],
      "name": "supportsInterface",
      "outputs": [
        {
          "internalType": "bool",
          "name": "",
          "type": "bool"
        }
      ],
      "stateMutability": "view",
      "type": "function"
    },
    {
      "inputs": [],
      "name": "symbol",
      "outputs": [
        {
          "internalType": "string",
          "name": "",
          "type": "string"
        }
      ],
      "stateMutability": "view",
      "type": "function"
    },
    {
      "inputs": [
        {
          "internalType": "uint256",
          "name": "tokenId",
          "type": "uint256"
        }
      ],
      "name": "tokenURI",
      "outputs": [
        {
          "internalType": "string",
          "name": "",
          "type": "string"
        }
      ],
      "stateMutability": "view",
      "type": "function"
    },
    {
      "inputs": [
        {
          "internalType": "address",
          "name": "from",
          "type": "address"
        },
        {
          "internalType": "address",
          "name": "to",
          "type": "address"
        },
        {
          "internalType": "uint256",
          "name": "tokenId",
          "type": "uint256"
        }
      ],
      "name": "transferFrom",
      "outputs": [],
      "stateMutability": "nonpayable",
      "type": "function"
    },
    {
      "inputs": [
        {
          "internalType": "address",
          "name": "newOwner",
          "type": "address"
        }
      ],
      "name": "transferOwnership",
      "outputs": [],
      "stateMutability": "nonpayable",
      "type": "function"
    },
    {
      "inputs": [
        {
          "internalType": "uint256",
          "name": "eventId",
          "type": "uint256"
        },
        {
          "internalType": "uint256",
          "name": "startTime",
          "type": "uint256"
        },
        {
          "internalType": "uint256",
          "name": "endTime",
          "type": "uint256"
        }
      ],
      "name": "updateEvent",
      "outputs": [],
      "stateMutability": "nonpayable",
      "type": "function"
    },
    {
      "inputs": [
        {
          "internalType": "uint256",
          "name": "_listingPrice",
          "type": "uint256"
        }
      ],
      "name": "updateListingPrice",
      "outputs": [],
      "stateMutability": "payable",
      "type": "function"
    }
  ],
  "transactionHash": "0x1fabd6e5a2a820171ac29c9c9337e3a3290ac3ac085566e598dc0ecb4378c48e",
  "args": [],
  "numDeployments": 1,
  "solcInputHash": "1f967ccf35c64b9b8622b85b7161eb5a",
  "bytecode": "0x60806040526040518060600160405280602c815260200162005485602c91396007908051906020019062000035929190620001e3565b506658d15e17628000600d553480156200004e57600080fd5b506040518060400160405280600d81526020017f5469636b657420546f6b656e73000000000000000000000000000000000000008152506040518060400160405280600481526020017f54434b54000000000000000000000000000000000000000000000000000000008152508160009080519060200190620000d3929190620001e3565b508060019080519060200190620000ec929190620001e3565b5050506200010f620001036200011560201b60201c565b6200011d60201b60201c565b620002f8565b600033905090565b6000600660009054906101000a900473ffffffffffffffffffffffffffffffffffffffff16905081600660006101000a81548173ffffffffffffffffffffffffffffffffffffffff021916908373ffffffffffffffffffffffffffffffffffffffff1602179055508173ffffffffffffffffffffffffffffffffffffffff168173ffffffffffffffffffffffffffffffffffffffff167f8be0079c531659141344cd1fd0a4f28419497f9722a3daafe3b4186f6b6457e060405160405180910390a35050565b828054620001f190620002c2565b90600052602060002090601f01602090048101928262000215576000855562000261565b82601f106200023057805160ff191683800117855562000261565b8280016001018555821562000261579182015b828111156200026057825182559160200191906001019062000243565b5b50905062000270919062000274565b5090565b5b808211156200028f57600081600090555060010162000275565b5090565b7f4e487b7100000000000000000000000000000000000000000000000000000000600052602260045260246000fd5b60006002820490506001821680620002db57607f821691505b60208210811415620002f257620002f162000293565b5b50919050565b61517d80620003086000396000f3fe6080604052600436106101c25760003560e01c806355f804b3116100f7578063a22cb46511610095578063c87b56dd11610064578063c87b56dd14610603578063e219fc7514610640578063e985e9c51461065c578063f2fde38b14610699576101c2565b8063a22cb46514610579578063ae677aa3146105a2578063b88d4fde146105be578063be9af536146105e7576101c2565b8063715018a6116100d1578063715018a6146104e15780638da5cb5b146104f857806395d89b41146105235780639cbf9e361461054e576101c2565b806355f804b31461043e5780636352211e1461046757806370a08231146104a4576101c2565b8063202e374011610164578063294e0d561161013e578063294e0d561461039157806342842e0e146103ba57806345f8fa80146103e35780634868cd631461040e576101c2565b8063202e37401461031457806323b872dd1461033f5780632529851014610368576101c2565b8063095ea7b3116101a0578063095ea7b31461026c5780630f08efe0146102955780630fbfe0e9146102c057806312e85585146102e9576101c2565b806301ffc9a7146101c757806306fdde0314610204578063081812fc1461022f575b600080fd5b3480156101d357600080fd5b506101ee60048036038101906101e991906133a0565b6106c2565b6040516101fb91906133e8565b60405180910390f35b34801561021057600080fd5b506102196107a4565b604051610226919061349c565b60405180910390f35b34801561023b57600080fd5b50610256600480360381019061025191906134f4565b610836565b6040516102639190613562565b60405180910390f35b34801561027857600080fd5b50610293600480360381019061028e91906135a9565b6108bb565b005b3480156102a157600080fd5b506102aa6109d3565b6040516102b7919061373f565b60405180910390f35b3480156102cc57600080fd5b506102e760048036038101906102e291906138cc565b610c3c565b005b3480156102f557600080fd5b506102fe610de1565b60405161030b9190613984565b60405180910390f35b34801561032057600080fd5b50610329610deb565b604051610336919061373f565b60405180910390f35b34801561034b57600080fd5b506103666004803603810190610361919061399f565b6110d9565b005b34801561037457600080fd5b5061038f600480360381019061038a91906139f2565b611139565b005b34801561039d57600080fd5b506103b860048036038101906103b39190613a45565b611219565b005b3480156103c657600080fd5b506103e160048036038101906103dc919061399f565b611376565b005b3480156103ef57600080fd5b506103f8611396565b604051610405919061373f565b60405180910390f35b610428600480360381019061042391906134f4565b611684565b6040516104359190613984565b60405180910390f35b34801561044a57600080fd5b5061046560048036038101906104609190613ab4565b6118b1565b005b34801561047357600080fd5b5061048e600480360381019061048991906134f4565b611947565b60405161049b9190613562565b60405180910390f35b3480156104b057600080fd5b506104cb60048036038101906104c69190613afd565b6119f9565b6040516104d89190613984565b60405180910390f35b3480156104ed57600080fd5b506104f6611ab1565b005b34801561050457600080fd5b5061050d611b39565b60405161051a9190613562565b60405180910390f35b34801561052f57600080fd5b50610538611b63565b604051610545919061349c565b60405180910390f35b34801561055a57600080fd5b50610563611bf5565b6040516105709190613984565b60405180910390f35b34801561058557600080fd5b506105a0600480360381019061059b9190613b56565b611c20565b005b6105bc60048036038101906105b791906134f4565b611c36565b005b3480156105ca57600080fd5b506105e560048036038101906105e09190613c37565b611cbc565b005b61060160048036038101906105fc91906134f4565b611d1e565b005b34801561060f57600080fd5b5061062a600480360381019061062591906134f4565b611ffe565b604051610637919061349c565b60405180910390f35b61065a60048036038101906106559190613cba565b6120a5565b005b34801561066857600080fd5b50610683600480360381019061067e9190613cfa565b6122f6565b60405161069091906133e8565b60405180910390f35b3480156106a557600080fd5b506106c060048036038101906106bb9190613afd565b61238a565b005b60007f80ac58cd000000000000000000000000000000000000000000000000000000007bffffffffffffffffffffffffffffffffffffffffffffffffffffffff1916827bffffffffffffffffffffffffffffffffffffffffffffffffffffffff1916148061078d57507f5b5e139f000000000000000000000000000000000000000000000000000000007bffffffffffffffffffffffffffffffffffffffffffffffffffffffff1916827bffffffffffffffffffffffffffffffffffffffffffffffffffffffff1916145b8061079d575061079c82612482565b5b9050919050565b6060600080546107b390613d69565b80601f01602080910402602001604051908101604052809291908181526020018280546107df90613d69565b801561082c5780601f106108015761010080835404028352916020019161082c565b820191906000526020600020905b81548152906001019060200180831161080f57829003601f168201915b5050505050905090565b6000610841826124ec565b610880576040517f08c379a000000000000000000000000000000000000000000000000000000000815260040161087790613e0d565b60405180910390fd5b6004600083815260200190815260200160002060009054906101000a900473ffffffffffffffffffffffffffffffffffffffff169050919050565b60006108c682611947565b90508073ffffffffffffffffffffffffffffffffffffffff168373ffffffffffffffffffffffffffffffffffffffff161415610937576040517f08c379a000000000000000000000000000000000000000000000000000000000815260040161092e90613e9f565b60405180910390fd5b8073ffffffffffffffffffffffffffffffffffffffff16610956612558565b73ffffffffffffffffffffffffffffffffffffffff16148061098557506109848161097f612558565b6122f6565b5b6109c4576040517f08c379a00000000000000000000000000000000000000000000000000000000081526004016109bb90613f31565b60405180910390fd5b6109ce8383612560565b505050565b606060006109e1600c612619565b905060006109ef600b612619565b6109f9600c612619565b610a039190613f80565b90506000808267ffffffffffffffff811115610a2257610a2161376b565b5b604051908082528060200260200182016040528015610a5b57816020015b610a48613234565b815260200190600190039081610a405790505b50905060005b84811015610c31573073ffffffffffffffffffffffffffffffffffffffff16600e6000600184610a919190613fb4565b815260200190815260200160002060020160009054906101000a900473ffffffffffffffffffffffffffffffffffffffff1673ffffffffffffffffffffffffffffffffffffffff161415610c1e576000600182610aee9190613fb4565b90506000600e60008381526020019081526020016000209050806040518060a0016040529081600082015481526020016001820160009054906101000a900473ffffffffffffffffffffffffffffffffffffffff1673ffffffffffffffffffffffffffffffffffffffff1673ffffffffffffffffffffffffffffffffffffffff1681526020016002820160009054906101000a900473ffffffffffffffffffffffffffffffffffffffff1673ffffffffffffffffffffffffffffffffffffffff1673ffffffffffffffffffffffffffffffffffffffff168152602001600382015481526020016004820160009054906101000a900460ff161515151581525050848681518110610c0157610c0061400a565b5b6020026020010181905250600185610c199190613fb4565b945050505b8080610c2990614039565b915050610a61565b508094505050505090565b60008411610c7f576040517f08c379a0000000000000000000000000000000000000000000000000000000008152600401610c76906140ce565b60405180910390fd5b610c89600a612627565b6000610c95600a612619565b9050604051806101200160405280888152602001428152602001878152602001868152602001858152602001848152602001838152602001838152602001600115158152506010600083815260200190815260200160002060008201518160000155602082015181600101556040820151816002019080519060200190610d1d929190613291565b50606082015181600301556080820151816004015560a0820151816005015560c0820151816006015560e082015181600701556101008201518160080160006101000a81548160ff0219169083151502179055509050506000600f600089815260200190815260200160002090507f23e43aa87fb6cd6e0767623783aeb3c1c4aab2dd562879333c14e692a2a6d348884289898989898a896004018b604051610dcf9a99989796959493929190614192565b60405180910390a15050505050505050565b6000600d54905090565b60606000610df96008612619565b905060008060005b83811015610ea2573373ffffffffffffffffffffffffffffffffffffffff16600e6000600184610e319190613fb4565b815260200190815260200160002060020160009054906101000a900473ffffffffffffffffffffffffffffffffffffffff1673ffffffffffffffffffffffffffffffffffffffff161415610e8f57600183610e8c9190613fb4565b92505b8080610e9a90614039565b915050610e01565b5060008267ffffffffffffffff811115610ebf57610ebe61376b565b5b604051908082528060200260200182016040528015610ef857816020015b610ee5613234565b815260200190600190039081610edd5790505b50905060005b848110156110ce573373ffffffffffffffffffffffffffffffffffffffff16600e6000600184610f2e9190613fb4565b815260200190815260200160002060020160009054906101000a900473ffffffffffffffffffffffffffffffffffffffff1673ffffffffffffffffffffffffffffffffffffffff1614156110bb576000600182610f8b9190613fb4565b90506000600e60008381526020019081526020016000209050806040518060a0016040529081600082015481526020016001820160009054906101000a900473ffffffffffffffffffffffffffffffffffffffff1673ffffffffffffffffffffffffffffffffffffffff1673ffffffffffffffffffffffffffffffffffffffff1681526020016002820160009054906101000a900473ffffffffffffffffffffffffffffffffffffffff1673ffffffffffffffffffffffffffffffffffffffff1673ffffffffffffffffffffffffffffffffffffffff168152602001600382015481526020016004820160009054906101000a900460ff16151515158152505084868151811061109e5761109d61400a565b5b60200260200101819052506001856110b69190613fb4565b945050505b80806110c690614039565b915050610efe565b508094505050505090565b6110ea6110e4612558565b8261263d565b611129576040517f08c379a0000000000000000000000000000000000000000000000000000000008152600401611120906142ae565b60405180910390fd5b61113483838361271b565b505050565b60011515600f600085815260200190815260200160002060050160009054906101000a900460ff161515146111a3576040517f08c379a000000000000000000000000000000000000000000000000000000000815260040161119a9061431a565b60405180910390fd5b81600f60008581526020019081526020016000206002018190555080600f6000858152602001908152602001600020600201819055507f7068eff53d4130b0bc23272635506565df6c5b683e458708df42b5468245b7bd83838360405161120c9392919061433a565b60405180910390a1505050565b6112236009612627565b600061122f6009612619565b90506040518060c001604052803373ffffffffffffffffffffffffffffffffffffffff16815260200142815260200185815260200184815260200183815260200160011515815250600f600083815260200190815260200160002060008201518160000160006101000a81548173ffffffffffffffffffffffffffffffffffffffff021916908373ffffffffffffffffffffffffffffffffffffffff160217905550602082015181600101556040820151816002015560608201518160030155608082015181600401908051906020019061130b929190613291565b5060a08201518160050160006101000a81548160ff0219169083151502179055509050507ff721e33d46866b7b414e72296025134f1a7942e8b66fa29295f2158d6d8f6a3533428686868660405161136896959493929190614371565b60405180910390a150505050565b61139183838360405180602001604052806000815250611cbc565b505050565b606060006113a46008612619565b905060008060005b8381101561144d573373ffffffffffffffffffffffffffffffffffffffff16600e60006001846113dc9190613fb4565b815260200190815260200160002060010160009054906101000a900473ffffffffffffffffffffffffffffffffffffffff1673ffffffffffffffffffffffffffffffffffffffff16141561143a576001836114379190613fb4565b92505b808061144590614039565b9150506113ac565b5060008267ffffffffffffffff81111561146a5761146961376b565b5b6040519080825280602002602001820160405280156114a357816020015b611490613234565b8152602001906001900390816114885790505b50905060005b84811015611679573373ffffffffffffffffffffffffffffffffffffffff16600e60006001846114d99190613fb4565b815260200190815260200160002060010160009054906101000a900473ffffffffffffffffffffffffffffffffffffffff1673ffffffffffffffffffffffffffffffffffffffff1614156116665760006001826115369190613fb4565b90506000600e60008381526020019081526020016000209050806040518060a0016040529081600082015481526020016001820160009054906101000a900473ffffffffffffffffffffffffffffffffffffffff1673ffffffffffffffffffffffffffffffffffffffff1673ffffffffffffffffffffffffffffffffffffffff1681526020016002820160009054906101000a900473ffffffffffffffffffffffffffffffffffffffff1673ffffffffffffffffffffffffffffffffffffffff1673ffffffffffffffffffffffffffffffffffffffff168152602001600382015481526020016004820160009054906101000a900460ff1615151515815250508486815181106116495761164861400a565b5b60200260200101819052506001856116619190613fb4565b945050505b808061167190614039565b9150506114a9565b508094505050505090565b60008060106000848152602001908152602001600020905060008160030154116116e3576040517f08c379a00000000000000000000000000000000000000000000000000000000081526004016116da90614425565b60405180910390fd5b34816003015414611729576040517f08c379a000000000000000000000000000000000000000000000000000000000815260040161172090614491565b60405180910390fd5b4281600401541180156117515750601060008481526020019081526020016000206005015442105b611790576040517f08c379a0000000000000000000000000000000000000000000000000000000008152600401611787906144fd565b60405180910390fd5b7fffffffffffffffffffffffffffffffffffffffffffffffffffffffffffffffff816006015414806117c6575060008160060154135b611805576040517f08c379a00000000000000000000000000000000000000000000000000000000081526004016117fc90614569565b60405180910390fd5b7fffffffffffffffffffffffffffffffffffffffffffffffffffffffffffffffff81600601541461184b5780600701600081548092919061184590614589565b91905055505b6000611855611bf5565b90506118618185612982565b7f8f452c855319507558f448a0bc0d50aa975f3508ef157722a8c8cdc006def7eb81853385600201866007015460405161189f9594939291906145d2565b60405180910390a18092505050919050565b6118b9612558565b73ffffffffffffffffffffffffffffffffffffffff166118d7611b39565b73ffffffffffffffffffffffffffffffffffffffff161461192d576040517f08c379a000000000000000000000000000000000000000000000000000000000815260040161192490614678565b60405180910390fd5b8060079080519060200190611943929190613291565b5050565b6000806002600084815260200190815260200160002060009054906101000a900473ffffffffffffffffffffffffffffffffffffffff169050600073ffffffffffffffffffffffffffffffffffffffff168173ffffffffffffffffffffffffffffffffffffffff1614156119f0576040517f08c379a00000000000000000000000000000000000000000000000000000000081526004016119e79061470a565b60405180910390fd5b80915050919050565b60008073ffffffffffffffffffffffffffffffffffffffff168273ffffffffffffffffffffffffffffffffffffffff161415611a6a576040517f08c379a0000000000000000000000000000000000000000000000000000000008152600401611a619061479c565b60405180910390fd5b600360008373ffffffffffffffffffffffffffffffffffffffff1673ffffffffffffffffffffffffffffffffffffffff168152602001908152602001600020549050919050565b611ab9612558565b73ffffffffffffffffffffffffffffffffffffffff16611ad7611b39565b73ffffffffffffffffffffffffffffffffffffffff1614611b2d576040517f08c379a0000000000000000000000000000000000000000000000000000000008152600401611b2490614678565b60405180910390fd5b611b376000612a14565b565b6000600660009054906101000a900473ffffffffffffffffffffffffffffffffffffffff16905090565b606060018054611b7290613d69565b80601f0160208091040260200160405190810160405280929190818152602001828054611b9e90613d69565b8015611beb5780601f10611bc057610100808354040283529160200191611beb565b820191906000526020600020905b815481529060010190602001808311611bce57829003601f168201915b5050505050905090565b6000611c016008612627565b6000611c0d6008612619565b9050611c193382612ada565b8091505090565b611c32611c2b612558565b8383612cb4565b5050565b611c3e612558565b73ffffffffffffffffffffffffffffffffffffffff16611c5c611b39565b73ffffffffffffffffffffffffffffffffffffffff1614611cb2576040517f08c379a0000000000000000000000000000000000000000000000000000000008152600401611ca990614678565b60405180910390fd5b80600d8190555050565b611ccd611cc7612558565b8361263d565b611d0c576040517f08c379a0000000000000000000000000000000000000000000000000000000008152600401611d03906142ae565b60405180910390fd5b611d1884848484612e21565b50505050565b6000600e60008381526020019081526020016000206003015490506000600e600084815260200190815260200160002060010160009054906101000a900473ffffffffffffffffffffffffffffffffffffffff1690506000600e600085815260200190815260200160002060040160009054906101000a900460ff1690506000600e6000868152602001908152602001600020600001549050833414611df9576040517f08c379a0000000000000000000000000000000000000000000000000000000008152600401611df090614854565b60405180910390fd5b8115611e3a576040517f08c379a0000000000000000000000000000000000000000000000000000000008152600401611e31906148c0565b60405180910390fd5b33600e600087815260200190815260200160002060020160006101000a81548173ffffffffffffffffffffffffffffffffffffffff021916908373ffffffffffffffffffffffffffffffffffffffff1602179055506001600e600087815260200190815260200160002060040160006101000a81548160ff0219169083151502179055506000600e600087815260200190815260200160002060010160006101000a81548173ffffffffffffffffffffffffffffffffffffffff021916908373ffffffffffffffffffffffffffffffffffffffff160217905550611f1e600b612627565b611f2930338361271b565b611f31611b39565b73ffffffffffffffffffffffffffffffffffffffff166108fc600d549081150290604051600060405180830381858888f19350505050158015611f78573d6000803e3d6000fd5b508273ffffffffffffffffffffffffffffffffffffffff166108fc349081150290604051600060405180830381858888f19350505050158015611fbf573d6000803e3d6000fd5b507f5edde87e7efe9511fd280717315e9a4c5f46a6a84becfc74084b59e48154084485604051611fef9190613984565b60405180910390a15050505050565b6060612009826124ec565b612048576040517f08c379a000000000000000000000000000000000000000000000000000000000815260040161203f90614952565b60405180910390fd5b6000612052612e7d565b90506000815111612072576040518060200160405280600081525061209d565b8061207c84612f0f565b60405160200161208d9291906149ae565b6040516020818303038152906040525b915050919050565b3373ffffffffffffffffffffffffffffffffffffffff166120c583611947565b73ffffffffffffffffffffffffffffffffffffffff161461211b576040517f08c379a000000000000000000000000000000000000000000000000000000000815260040161211290614a44565b60405180910390fd5b600d54341461215f576040517f08c379a000000000000000000000000000000000000000000000000000000000815260040161215690614ad6565b60405180910390fd5b612169600c612627565b6000612175600c612619565b90506040518060a001604052808481526020013373ffffffffffffffffffffffffffffffffffffffff1681526020013073ffffffffffffffffffffffffffffffffffffffff16815260200183815260200160001515815250600e60008381526020019081526020016000206000820151816000015560208201518160010160006101000a81548173ffffffffffffffffffffffffffffffffffffffff021916908373ffffffffffffffffffffffffffffffffffffffff16021790555060408201518160020160006101000a81548173ffffffffffffffffffffffffffffffffffffffff021916908373ffffffffffffffffffffffffffffffffffffffff1602179055506060820151816003015560808201518160040160006101000a81548160ff0219169083151502179055509050506122b033308561271b565b827f2d68735082042d66c5027bd8c6f7e29d9eaa7ce21cd00f9671f170b22a091d283330856000866040516122e9959493929190614af6565b60405180910390a2505050565b6000600560008473ffffffffffffffffffffffffffffffffffffffff1673ffffffffffffffffffffffffffffffffffffffff16815260200190815260200160002060008373ffffffffffffffffffffffffffffffffffffffff1673ffffffffffffffffffffffffffffffffffffffff16815260200190815260200160002060009054906101000a900460ff16905092915050565b612392612558565b73ffffffffffffffffffffffffffffffffffffffff166123b0611b39565b73ffffffffffffffffffffffffffffffffffffffff1614612406576040517f08c379a00000000000000000000000000000000000000000000000000000000081526004016123fd90614678565b60405180910390fd5b600073ffffffffffffffffffffffffffffffffffffffff168173ffffffffffffffffffffffffffffffffffffffff161415612476576040517f08c379a000000000000000000000000000000000000000000000000000000000815260040161246d90614bbb565b60405180910390fd5b61247f81612a14565b50565b60007f01ffc9a7000000000000000000000000000000000000000000000000000000007bffffffffffffffffffffffffffffffffffffffffffffffffffffffff1916827bffffffffffffffffffffffffffffffffffffffffffffffffffffffff1916149050919050565b60008073ffffffffffffffffffffffffffffffffffffffff166002600084815260200190815260200160002060009054906101000a900473ffffffffffffffffffffffffffffffffffffffff1673ffffffffffffffffffffffffffffffffffffffff1614159050919050565b600033905090565b816004600083815260200190815260200160002060006101000a81548173ffffffffffffffffffffffffffffffffffffffff021916908373ffffffffffffffffffffffffffffffffffffffff160217905550808273ffffffffffffffffffffffffffffffffffffffff166125d383611947565b73ffffffffffffffffffffffffffffffffffffffff167f8c5be1e5ebec7d5bd14f71427d1e84f3dd0314c0f7b2291e5b200ac8c7c3b92560405160405180910390a45050565b600081600001549050919050565b6001816000016000828254019250508190555050565b6000612648826124ec565b612687576040517f08c379a000000000000000000000000000000000000000000000000000000000815260040161267e90614c4d565b60405180910390fd5b600061269283611947565b90508073ffffffffffffffffffffffffffffffffffffffff168473ffffffffffffffffffffffffffffffffffffffff1614806126d457506126d381856122f6565b5b8061271257508373ffffffffffffffffffffffffffffffffffffffff166126fa84610836565b73ffffffffffffffffffffffffffffffffffffffff16145b91505092915050565b8273ffffffffffffffffffffffffffffffffffffffff1661273b82611947565b73ffffffffffffffffffffffffffffffffffffffff1614612791576040517f08c379a000000000000000000000000000000000000000000000000000000000815260040161278890614cdf565b60405180910390fd5b600073ffffffffffffffffffffffffffffffffffffffff168273ffffffffffffffffffffffffffffffffffffffff161415612801576040517f08c379a00000000000000000000000000000000000000000000000000000000081526004016127f890614d71565b60405180910390fd5b61280c838383613070565b612817600082612560565b6001600360008573ffffffffffffffffffffffffffffffffffffffff1673ffffffffffffffffffffffffffffffffffffffff16815260200190815260200160002060008282546128679190613f80565b925050819055506001600360008473ffffffffffffffffffffffffffffffffffffffff1673ffffffffffffffffffffffffffffffffffffffff16815260200190815260200160002060008282546128be9190613fb4565b92505081905550816002600083815260200190815260200160002060006101000a81548173ffffffffffffffffffffffffffffffffffffffff021916908373ffffffffffffffffffffffffffffffffffffffff160217905550808273ffffffffffffffffffffffffffffffffffffffff168473ffffffffffffffffffffffffffffffffffffffff167fddf252ad1be2c89b69c2b068fc378daa952ba7f163c4a11628f55a4df523b3ef60405160405180910390a461297d838383613075565b505050565b61298b82611947565b73ffffffffffffffffffffffffffffffffffffffff163373ffffffffffffffffffffffffffffffffffffffff16146129f8576040517f08c379a00000000000000000000000000000000000000000000000000000000081526004016129ef90614ddd565b60405180910390fd5b8060116000848152602001908152602001600020819055505050565b6000600660009054906101000a900473ffffffffffffffffffffffffffffffffffffffff16905081600660006101000a81548173ffffffffffffffffffffffffffffffffffffffff021916908373ffffffffffffffffffffffffffffffffffffffff1602179055508173ffffffffffffffffffffffffffffffffffffffff168173ffffffffffffffffffffffffffffffffffffffff167f8be0079c531659141344cd1fd0a4f28419497f9722a3daafe3b4186f6b6457e060405160405180910390a35050565b600073ffffffffffffffffffffffffffffffffffffffff168273ffffffffffffffffffffffffffffffffffffffff161415612b4a576040517f08c379a0000000000000000000000000000000000000000000000000000000008152600401612b4190614e49565b60405180910390fd5b612b53816124ec565b15612b93576040517f08c379a0000000000000000000000000000000000000000000000000000000008152600401612b8a90614eb5565b60405180910390fd5b612b9f60008383613070565b6001600360008473ffffffffffffffffffffffffffffffffffffffff1673ffffffffffffffffffffffffffffffffffffffff1681526020019081526020016000206000828254612bef9190613fb4565b92505081905550816002600083815260200190815260200160002060006101000a81548173ffffffffffffffffffffffffffffffffffffffff021916908373ffffffffffffffffffffffffffffffffffffffff160217905550808273ffffffffffffffffffffffffffffffffffffffff16600073ffffffffffffffffffffffffffffffffffffffff167fddf252ad1be2c89b69c2b068fc378daa952ba7f163c4a11628f55a4df523b3ef60405160405180910390a4612cb060008383613075565b5050565b8173ffffffffffffffffffffffffffffffffffffffff168373ffffffffffffffffffffffffffffffffffffffff161415612d23576040517f08c379a0000000000000000000000000000000000000000000000000000000008152600401612d1a90614f21565b60405180910390fd5b80600560008573ffffffffffffffffffffffffffffffffffffffff1673ffffffffffffffffffffffffffffffffffffffff16815260200190815260200160002060008473ffffffffffffffffffffffffffffffffffffffff1673ffffffffffffffffffffffffffffffffffffffff16815260200190815260200160002060006101000a81548160ff0219169083151502179055508173ffffffffffffffffffffffffffffffffffffffff168373ffffffffffffffffffffffffffffffffffffffff167f17307eab39ab6107e8899845ad3d59bd9653f200f220920489ca2b5937696c3183604051612e1491906133e8565b60405180910390a3505050565b612e2c84848461271b565b612e388484848461307a565b612e77576040517f08c379a0000000000000000000000000000000000000000000000000000000008152600401612e6e90614fb3565b60405180910390fd5b50505050565b606060078054612e8c90613d69565b80601f0160208091040260200160405190810160405280929190818152602001828054612eb890613d69565b8015612f055780601f10612eda57610100808354040283529160200191612f05565b820191906000526020600020905b815481529060010190602001808311612ee857829003601f168201915b5050505050905090565b60606000821415612f57576040518060400160405280600181526020017f3000000000000000000000000000000000000000000000000000000000000000815250905061306b565b600082905060005b60008214612f89578080612f7290614039565b915050600a82612f829190615002565b9150612f5f565b60008167ffffffffffffffff811115612fa557612fa461376b565b5b6040519080825280601f01601f191660200182016040528015612fd75781602001600182028036833780820191505090505b5090505b6000851461306457600182612ff09190613f80565b9150600a85612fff9190615033565b603061300b9190613fb4565b60f81b8183815181106130215761302061400a565b5b60200101907effffffffffffffffffffffffffffffffffffffffffffffffffffffffffffff1916908160001a905350600a8561305d9190615002565b9450612fdb565b8093505050505b919050565b505050565b505050565b600061309b8473ffffffffffffffffffffffffffffffffffffffff16613211565b15613204578373ffffffffffffffffffffffffffffffffffffffff1663150b7a026130c4612558565b8786866040518563ffffffff1660e01b81526004016130e694939291906150b9565b602060405180830381600087803b15801561310057600080fd5b505af192505050801561313157506040513d601f19601f8201168201806040525081019061312e919061511a565b60015b6131b4573d8060008114613161576040519150601f19603f3d011682016040523d82523d6000602084013e613166565b606091505b506000815114156131ac576040517f08c379a00000000000000000000000000000000000000000000000000000000081526004016131a390614fb3565b60405180910390fd5b805181602001fd5b63150b7a0260e01b7bffffffffffffffffffffffffffffffffffffffffffffffffffffffff1916817bffffffffffffffffffffffffffffffffffffffffffffffffffffffff191614915050613209565b600190505b949350505050565b6000808273ffffffffffffffffffffffffffffffffffffffff163b119050919050565b6040518060a0016040528060008152602001600073ffffffffffffffffffffffffffffffffffffffff168152602001600073ffffffffffffffffffffffffffffffffffffffff168152602001600081526020016000151581525090565b82805461329d90613d69565b90600052602060002090601f0160209004810192826132bf5760008555613306565b82601f106132d857805160ff1916838001178555613306565b82800160010185558215613306579182015b828111156133055782518255916020019190600101906132ea565b5b5090506133139190613317565b5090565b5b80821115613330576000816000905550600101613318565b5090565b6000604051905090565b600080fd5b600080fd5b60007fffffffff0000000000000000000000000000000000000000000000000000000082169050919050565b61337d81613348565b811461338857600080fd5b50565b60008135905061339a81613374565b92915050565b6000602082840312156133b6576133b561333e565b5b60006133c48482850161338b565b91505092915050565b60008115159050919050565b6133e2816133cd565b82525050565b60006020820190506133fd60008301846133d9565b92915050565b600081519050919050565b600082825260208201905092915050565b60005b8381101561343d578082015181840152602081019050613422565b8381111561344c576000848401525b50505050565b6000601f19601f8301169050919050565b600061346e82613403565b613478818561340e565b935061348881856020860161341f565b61349181613452565b840191505092915050565b600060208201905081810360008301526134b68184613463565b905092915050565b6000819050919050565b6134d1816134be565b81146134dc57600080fd5b50565b6000813590506134ee816134c8565b92915050565b60006020828403121561350a5761350961333e565b5b6000613518848285016134df565b91505092915050565b600073ffffffffffffffffffffffffffffffffffffffff82169050919050565b600061354c82613521565b9050919050565b61355c81613541565b82525050565b60006020820190506135776000830184613553565b92915050565b61358681613541565b811461359157600080fd5b50565b6000813590506135a38161357d565b92915050565b600080604083850312156135c0576135bf61333e565b5b60006135ce85828601613594565b92505060206135df858286016134df565b9150509250929050565b600081519050919050565b600082825260208201905092915050565b6000819050602082019050919050565b61361e816134be565b82525050565b600061362f82613521565b9050919050565b61363f81613624565b82525050565b61364e816133cd565b82525050565b60a08201600082015161366a6000850182613615565b50602082015161367d6020850182613636565b5060408201516136906040850182613636565b5060608201516136a36060850182613615565b5060808201516136b66080850182613645565b50505050565b60006136c88383613654565b60a08301905092915050565b6000602082019050919050565b60006136ec826135e9565b6136f681856135f4565b935061370183613605565b8060005b8381101561373257815161371988826136bc565b9750613724836136d4565b925050600181019050613705565b5085935050505092915050565b6000602082019050818103600083015261375981846136e1565b905092915050565b600080fd5b600080fd5b7f4e487b7100000000000000000000000000000000000000000000000000000000600052604160045260246000fd5b6137a382613452565b810181811067ffffffffffffffff821117156137c2576137c161376b565b5b80604052505050565b60006137d5613334565b90506137e1828261379a565b919050565b600067ffffffffffffffff8211156138015761380061376b565b5b61380a82613452565b9050602081019050919050565b82818337600083830152505050565b6000613839613834846137e6565b6137cb565b90508281526020810184848401111561385557613854613766565b5b613860848285613817565b509392505050565b600082601f83011261387d5761387c613761565b5b813561388d848260208601613826565b91505092915050565b6000819050919050565b6138a981613896565b81146138b457600080fd5b50565b6000813590506138c6816138a0565b92915050565b60008060008060008060c087890312156138e9576138e861333e565b5b60006138f789828a016134df565b965050602087013567ffffffffffffffff81111561391857613917613343565b5b61392489828a01613868565b955050604061393589828a016134df565b945050606061394689828a016134df565b935050608061395789828a016134df565b92505060a061396889828a016138b7565b9150509295509295509295565b61397e816134be565b82525050565b60006020820190506139996000830184613975565b92915050565b6000806000606084860312156139b8576139b761333e565b5b60006139c686828701613594565b93505060206139d786828701613594565b92505060406139e8868287016134df565b9150509250925092565b600080600060608486031215613a0b57613a0a61333e565b5b6000613a19868287016134df565b9350506020613a2a868287016134df565b9250506040613a3b868287016134df565b9150509250925092565b600080600060608486031215613a5e57613a5d61333e565b5b6000613a6c868287016134df565b9350506020613a7d868287016134df565b925050604084013567ffffffffffffffff811115613a9e57613a9d613343565b5b613aaa86828701613868565b9150509250925092565b600060208284031215613aca57613ac961333e565b5b600082013567ffffffffffffffff811115613ae857613ae7613343565b5b613af484828501613868565b91505092915050565b600060208284031215613b1357613b1261333e565b5b6000613b2184828501613594565b91505092915050565b613b33816133cd565b8114613b3e57600080fd5b50565b600081359050613b5081613b2a565b92915050565b60008060408385031215613b6d57613b6c61333e565b5b6000613b7b85828601613594565b9250506020613b8c85828601613b41565b9150509250929050565b600067ffffffffffffffff821115613bb157613bb061376b565b5b613bba82613452565b9050602081019050919050565b6000613bda613bd584613b96565b6137cb565b905082815260208101848484011115613bf657613bf5613766565b5b613c01848285613817565b509392505050565b600082601f830112613c1e57613c1d613761565b5b8135613c2e848260208601613bc7565b91505092915050565b60008060008060808587031215613c5157613c5061333e565b5b6000613c5f87828801613594565b9450506020613c7087828801613594565b9350506040613c81878288016134df565b925050606085013567ffffffffffffffff811115613ca257613ca1613343565b5b613cae87828801613c09565b91505092959194509250565b60008060408385031215613cd157613cd061333e565b5b6000613cdf858286016134df565b9250506020613cf0858286016134df565b9150509250929050565b60008060408385031215613d1157613d1061333e565b5b6000613d1f85828601613594565b9250506020613d3085828601613594565b9150509250929050565b7f4e487b7100000000000000000000000000000000000000000000000000000000600052602260045260246000fd5b60006002820490506001821680613d8157607f821691505b60208210811415613d9557613d94613d3a565b5b50919050565b7f4552433732313a20617070726f76656420717565727920666f72206e6f6e657860008201527f697374656e7420746f6b656e0000000000000000000000000000000000000000602082015250565b6000613df7602c8361340e565b9150613e0282613d9b565b604082019050919050565b60006020820190508181036000830152613e2681613dea565b9050919050565b7f4552433732313a20617070726f76616c20746f2063757272656e74206f776e6560008201527f7200000000000000000000000000000000000000000000000000000000000000602082015250565b6000613e8960218361340e565b9150613e9482613e2d565b604082019050919050565b60006020820190508181036000830152613eb881613e7c565b9050919050565b7f4552433732313a20617070726f76652063616c6c6572206973206e6f74206f7760008201527f6e6572206e6f7220617070726f76656420666f7220616c6c0000000000000000602082015250565b6000613f1b60388361340e565b9150613f2682613ebf565b604082019050919050565b60006020820190508181036000830152613f4a81613f0e565b9050919050565b7f4e487b7100000000000000000000000000000000000000000000000000000000600052601160045260246000fd5b6000613f8b826134be565b9150613f96836134be565b925082821015613fa957613fa8613f51565b5b828203905092915050565b6000613fbf826134be565b9150613fca836134be565b9250827fffffffffffffffffffffffffffffffffffffffffffffffffffffffffffffffff03821115613fff57613ffe613f51565b5b828201905092915050565b7f4e487b7100000000000000000000000000000000000000000000000000000000600052603260045260246000fd5b6000614044826134be565b91507fffffffffffffffffffffffffffffffffffffffffffffffffffffffffffffffff82141561407757614076613f51565b5b600182019050919050565b7f5072696365206d757374206265206174206c6561737420312077656900000000600082015250565b60006140b8601c8361340e565b91506140c382614082565b602082019050919050565b600060208201905081810360008301526140e7816140ab565b9050919050565b6140f781613896565b82525050565b60008190508160005260206000209050919050565b6000815461411f81613d69565b614129818661340e565b94506001821660008114614144576001811461415657614189565b60ff1983168652602086019350614189565b61415f856140fd565b60005b8381101561418157815481890152600182019150602081019050614162565b808801955050505b50505092915050565b6000610140820190506141a8600083018d613975565b6141b5602083018c613975565b81810360408301526141c7818b613463565b90506141d6606083018a613975565b6141e36080830189613975565b6141f060a0830188613975565b6141fd60c08301876140ee565b61420a60e08301866140ee565b81810361010083015261421d8185614112565b905061422d610120830184613975565b9b9a5050505050505050505050565b7f4552433732313a207472616e736665722063616c6c6572206973206e6f74206f60008201527f776e6572206e6f7220617070726f766564000000000000000000000000000000602082015250565b600061429860318361340e565b91506142a38261423c565b604082019050919050565b600060208201905081810360008301526142c78161428b565b9050919050565b7f4e6f742065786973747300000000000000000000000000000000000000000000600082015250565b6000614304600a8361340e565b915061430f826142ce565b602082019050919050565b60006020820190508181036000830152614333816142f7565b9050919050565b600060608201905061434f6000830186613975565b61435c6020830185613975565b6143696040830184613975565b949350505050565b600060c0820190506143866000830189613553565b6143936020830188613975565b6143a06040830187613975565b6143ad6060830186613975565b81810360808301526143bf8185613463565b90506143ce60a0830184613975565b979650505050505050565b7f5469636b65742074797065206e6f742065787369740000000000000000000000600082015250565b600061440f60158361340e565b915061441a826143d9565b602082019050919050565b6000602082019050818103600083015261443e81614402565b9050919050565b7f4e6f7420636f727265637420616d6f756e74206f66206d6f6e65790000000000600082015250565b600061447b601b8361340e565b915061448682614445565b602082019050919050565b600060208201905081810360008301526144aa8161446e565b9050919050565b7f4e6f7420696e2073656c6c696e672074696d6500000000000000000000000000600082015250565b60006144e760138361340e565b91506144f2826144b1565b602082019050919050565b60006020820190508181036000830152614516816144da565b9050919050565b7f4e6f207469636b6574206c656674000000000000000000000000000000000000600082015250565b6000614553600e8361340e565b915061455e8261451d565b602082019050919050565b6000602082019050818103600083015261458281614546565b9050919050565b600061459482613896565b91507f80000000000000000000000000000000000000000000000000000000000000008214156145c7576145c6613f51565b5b600182039050919050565b600060a0820190506145e76000830188613975565b6145f46020830187613975565b6146016040830186613553565b81810360608301526146138185614112565b905061462260808301846140ee565b9695505050505050565b7f4f776e61626c653a2063616c6c6572206973206e6f7420746865206f776e6572600082015250565b600061466260208361340e565b915061466d8261462c565b602082019050919050565b6000602082019050818103600083015261469181614655565b9050919050565b7f4552433732313a206f776e657220717565727920666f72206e6f6e657869737460008201527f656e7420746f6b656e0000000000000000000000000000000000000000000000602082015250565b60006146f460298361340e565b91506146ff82614698565b604082019050919050565b60006020820190508181036000830152614723816146e7565b9050919050565b7f4552433732313a2062616c616e636520717565727920666f7220746865207a6560008201527f726f206164647265737300000000000000000000000000000000000000000000602082015250565b6000614786602a8361340e565b91506147918261472a565b604082019050919050565b600060208201905081810360008301526147b581614779565b9050919050565b7f506c65617365207375626d6974207468652061736b696e67207072696365206960008201527f6e206f727364657220746f20636f6d706c65746520746865207075726368617360208201527f6500000000000000000000000000000000000000000000000000000000000000604082015250565b600061483e60418361340e565b9150614849826147bc565b606082019050919050565b6000602082019050818103600083015261486d81614831565b9050919050565b7f4974656d2068617320736f6c6400000000000000000000000000000000000000600082015250565b60006148aa600d8361340e565b91506148b582614874565b602082019050919050565b600060208201905081810360008301526148d98161489d565b9050919050565b7f4552433732314d657461646174613a2055524920717565727920666f72206e6f60008201527f6e6578697374656e7420746f6b656e0000000000000000000000000000000000602082015250565b600061493c602f8361340e565b9150614947826148e0565b604082019050919050565b6000602082019050818103600083015261496b8161492f565b9050919050565b600081905092915050565b600061498882613403565b6149928185614972565b93506149a281856020860161341f565b80840191505092915050565b60006149ba828561497d565b91506149c6828461497d565b91508190509392505050565b7f4f6e6c79206974656d206f776e65722063616e20706572666f726d207468697360008201527f206f7065726174696f6e00000000000000000000000000000000000000000000602082015250565b6000614a2e602a8361340e565b9150614a39826149d2565b604082019050919050565b60006020820190508181036000830152614a5d81614a21565b9050919050565b7f5072696365206d75737420626520657175616c20746f206c697374696e67207060008201527f7269636500000000000000000000000000000000000000000000000000000000602082015250565b6000614ac060248361340e565b9150614acb82614a64565b604082019050919050565b60006020820190508181036000830152614aef81614ab3565b9050919050565b600060a082019050614b0b6000830188613553565b614b186020830187613553565b614b256040830186613975565b614b3260608301856133d9565b614b3f6080830184613975565b9695505050505050565b7f4f776e61626c653a206e6577206f776e657220697320746865207a65726f206160008201527f6464726573730000000000000000000000000000000000000000000000000000602082015250565b6000614ba560268361340e565b9150614bb082614b49565b604082019050919050565b60006020820190508181036000830152614bd481614b98565b9050919050565b7f4552433732313a206f70657261746f7220717565727920666f72206e6f6e657860008201527f697374656e7420746f6b656e0000000000000000000000000000000000000000602082015250565b6000614c37602c8361340e565b9150614c4282614bdb565b604082019050919050565b60006020820190508181036000830152614c6681614c2a565b9050919050565b7f4552433732313a207472616e736665722066726f6d20696e636f72726563742060008201527f6f776e6572000000000000000000000000000000000000000000000000000000602082015250565b6000614cc960258361340e565b9150614cd482614c6d565b604082019050919050565b60006020820190508181036000830152614cf881614cbc565b9050919050565b7f4552433732313a207472616e7366657220746f20746865207a65726f2061646460008201527f7265737300000000000000000000000000000000000000000000000000000000602082015250565b6000614d5b60248361340e565b9150614d6682614cff565b604082019050919050565b60006020820190508181036000830152614d8a81614d4e565b9050919050565b7f4861766520746f206265206f6e776572206f6620746f6b656e00000000000000600082015250565b6000614dc760198361340e565b9150614dd282614d91565b602082019050919050565b60006020820190508181036000830152614df681614dba565b9050919050565b7f4552433732313a206d696e7420746f20746865207a65726f2061646472657373600082015250565b6000614e3360208361340e565b9150614e3e82614dfd565b602082019050919050565b60006020820190508181036000830152614e6281614e26565b9050919050565b7f4552433732313a20746f6b656e20616c7265616479206d696e74656400000000600082015250565b6000614e9f601c8361340e565b9150614eaa82614e69565b602082019050919050565b60006020820190508181036000830152614ece81614e92565b9050919050565b7f4552433732313a20617070726f766520746f2063616c6c657200000000000000600082015250565b6000614f0b60198361340e565b9150614f1682614ed5565b602082019050919050565b60006020820190508181036000830152614f3a81614efe565b9050919050565b7f4552433732313a207472616e7366657220746f206e6f6e20455243373231526560008201527f63656976657220696d706c656d656e7465720000000000000000000000000000602082015250565b6000614f9d60328361340e565b9150614fa882614f41565b604082019050919050565b60006020820190508181036000830152614fcc81614f90565b9050919050565b7f4e487b7100000000000000000000000000000000000000000000000000000000600052601260045260246000fd5b600061500d826134be565b9150615018836134be565b92508261502857615027614fd3565b5b828204905092915050565b600061503e826134be565b9150615049836134be565b92508261505957615058614fd3565b5b828206905092915050565b600081519050919050565b600082825260208201905092915050565b600061508b82615064565b615095818561506f565b93506150a581856020860161341f565b6150ae81613452565b840191505092915050565b60006080820190506150ce6000830187613553565b6150db6020830186613553565b6150e86040830185613975565b81810360608301526150fa8184615080565b905095945050505050565b60008151905061511481613374565b92915050565b6000602082840312156151305761512f61333e565b5b600061513e84828501615105565b9150509291505056fea2646970667358221220f88da47ea6c51da5cecdb9c76f2db47ee596945bce4990e7391864c7b0b971b764736f6c63430008080033687474703a2f2f6c6f63616c686f73743a353030312f6170692f6576656e742d7469636b65742f646174612f",
  "devdoc": {
    "kind": "dev",
    "methods": {
      "approve(address,uint256)": {
        "details": "See {IERC721-approve}."
      },
      "balanceOf(address)": {
        "details": "See {IERC721-balanceOf}."
      },
      "getApproved(uint256)": {
        "details": "See {IERC721-getApproved}."
      },
      "isApprovedForAll(address,address)": {
        "details": "See {IERC721-isApprovedForAll}."
      },
      "name()": {
        "details": "See {IERC721Metadata-name}."
      },
      "owner()": {
        "details": "Returns the address of the current owner."
      },
      "ownerOf(uint256)": {
        "details": "See {IERC721-ownerOf}."
      },
      "renounceOwnership()": {
        "details": "Leaves the contract without owner. It will not be possible to call `onlyOwner` functions anymore. Can only be called by the current owner. NOTE: Renouncing ownership will leave the contract without an owner, thereby removing any functionality that is only available to the owner."
      },
      "safeTransferFrom(address,address,uint256)": {
        "details": "See {IERC721-safeTransferFrom}."
      },
      "safeTransferFrom(address,address,uint256,bytes)": {
        "details": "See {IERC721-safeTransferFrom}."
      },
      "setApprovalForAll(address,bool)": {
        "details": "See {IERC721-setApprovalForAll}."
      },
      "supportsInterface(bytes4)": {
        "details": "See {IERC165-supportsInterface}."
      },
      "symbol()": {
        "details": "See {IERC721Metadata-symbol}."
      },
      "tokenURI(uint256)": {
        "details": "See {IERC721Metadata-tokenURI}."
      },
      "transferFrom(address,address,uint256)": {
        "details": "See {IERC721-transferFrom}."
      },
      "transferOwnership(address)": {
        "details": "Transfers ownership of the contract to a new account (`newOwner`). Can only be called by the current owner."
      }
    },
    "version": 1
  },
  "userdoc": {
    "kind": "user",
    "methods": {},
    "version": 1
  },
  "storageLayout": {
    "storage": [
      {
        "astId": 130,
        "contract": "contracts/NFTTicketMarketplace.sol:NFTTicketMarketplace",
        "label": "_name",
        "offset": 0,
        "slot": "0",
        "type": "t_string_storage"
      },
      {
        "astId": 132,
        "contract": "contracts/NFTTicketMarketplace.sol:NFTTicketMarketplace",
        "label": "_symbol",
        "offset": 0,
        "slot": "1",
        "type": "t_string_storage"
      },
      {
        "astId": 136,
        "contract": "contracts/NFTTicketMarketplace.sol:NFTTicketMarketplace",
        "label": "_owners",
        "offset": 0,
        "slot": "2",
        "type": "t_mapping(t_uint256,t_address)"
      },
      {
        "astId": 140,
        "contract": "contracts/NFTTicketMarketplace.sol:NFTTicketMarketplace",
        "label": "_balances",
        "offset": 0,
        "slot": "3",
        "type": "t_mapping(t_address,t_uint256)"
      },
      {
        "astId": 144,
        "contract": "contracts/NFTTicketMarketplace.sol:NFTTicketMarketplace",
        "label": "_tokenApprovals",
        "offset": 0,
        "slot": "4",
        "type": "t_mapping(t_uint256,t_address)"
      },
      {
        "astId": 150,
        "contract": "contracts/NFTTicketMarketplace.sol:NFTTicketMarketplace",
        "label": "_operatorApprovals",
        "offset": 0,
        "slot": "5",
        "type": "t_mapping(t_address,t_mapping(t_address,t_bool))"
      },
      {
        "astId": 7,
        "contract": "contracts/NFTTicketMarketplace.sol:NFTTicketMarketplace",
        "label": "_owner",
        "offset": 0,
        "slot": "6",
        "type": "t_address"
      },
      {
        "astId": 1902,
        "contract": "contracts/NFTTicketMarketplace.sol:NFTTicketMarketplace",
        "label": "baseURI",
        "offset": 0,
        "slot": "7",
        "type": "t_string_storage"
      },
      {
        "astId": 2022,
        "contract": "contracts/NFTTicketMarketplace.sol:NFTTicketMarketplace",
        "label": "_tokenIds",
        "offset": 0,
        "slot": "8",
        "type": "t_struct(Counter)1582_storage"
      },
      {
        "astId": 2025,
        "contract": "contracts/NFTTicketMarketplace.sol:NFTTicketMarketplace",
        "label": "_eventIds",
        "offset": 0,
        "slot": "9",
        "type": "t_struct(Counter)1582_storage"
      },
      {
        "astId": 2028,
        "contract": "contracts/NFTTicketMarketplace.sol:NFTTicketMarketplace",
        "label": "_typeTicketIds",
        "offset": 0,
        "slot": "10",
        "type": "t_struct(Counter)1582_storage"
      },
      {
        "astId": 2031,
        "contract": "contracts/NFTTicketMarketplace.sol:NFTTicketMarketplace",
        "label": "_itemsSold",
        "offset": 0,
        "slot": "11",
        "type": "t_struct(Counter)1582_storage"
      },
      {
        "astId": 2034,
        "contract": "contracts/NFTTicketMarketplace.sol:NFTTicketMarketplace",
        "label": "_marketIds",
        "offset": 0,
        "slot": "12",
        "type": "t_struct(Counter)1582_storage"
      },
      {
        "astId": 2037,
        "contract": "contracts/NFTTicketMarketplace.sol:NFTTicketMarketplace",
        "label": "listingPrice",
        "offset": 0,
        "slot": "13",
        "type": "t_uint256"
      },
      {
        "astId": 2042,
        "contract": "contracts/NFTTicketMarketplace.sol:NFTTicketMarketplace",
        "label": "idToMarketItem",
        "offset": 0,
        "slot": "14",
        "type": "t_mapping(t_uint256,t_struct(MarketItem)2067_storage)"
      },
      {
        "astId": 2047,
        "contract": "contracts/NFTTicketMarketplace.sol:NFTTicketMarketplace",
        "label": "idToEvent",
        "offset": 0,
        "slot": "15",
        "type": "t_mapping(t_uint256,t_struct(Event)1936_storage)"
      },
      {
        "astId": 2052,
        "contract": "contracts/NFTTicketMarketplace.sol:NFTTicketMarketplace",
        "label": "idToTicketType",
        "offset": 0,
        "slot": "16",
        "type": "t_mapping(t_uint256,t_struct(TicketType)1981_storage)"
      },
      {
        "astId": 2056,
        "contract": "contracts/NFTTicketMarketplace.sol:NFTTicketMarketplace",
        "label": "idTokenToIdTicketType",
        "offset": 0,
        "slot": "17",
        "type": "t_mapping(t_uint256,t_uint256)"
      }
    ],
    "types": {
      "t_address": {
        "encoding": "inplace",
        "label": "address",
        "numberOfBytes": "20"
      },
      "t_address_payable": {
        "encoding": "inplace",
        "label": "address payable",
        "numberOfBytes": "20"
      },
      "t_bool": {
        "encoding": "inplace",
        "label": "bool",
        "numberOfBytes": "1"
      },
      "t_int256": {
        "encoding": "inplace",
        "label": "int256",
        "numberOfBytes": "32"
      },
      "t_mapping(t_address,t_bool)": {
        "encoding": "mapping",
        "key": "t_address",
        "label": "mapping(address => bool)",
        "numberOfBytes": "32",
        "value": "t_bool"
      },
      "t_mapping(t_address,t_mapping(t_address,t_bool))": {
        "encoding": "mapping",
        "key": "t_address",
        "label": "mapping(address => mapping(address => bool))",
        "numberOfBytes": "32",
        "value": "t_mapping(t_address,t_bool)"
      },
      "t_mapping(t_address,t_uint256)": {
        "encoding": "mapping",
        "key": "t_address",
        "label": "mapping(address => uint256)",
        "numberOfBytes": "32",
        "value": "t_uint256"
      },
      "t_mapping(t_uint256,t_address)": {
        "encoding": "mapping",
        "key": "t_uint256",
        "label": "mapping(uint256 => address)",
        "numberOfBytes": "32",
        "value": "t_address"
      },
      "t_mapping(t_uint256,t_struct(Event)1936_storage)": {
        "encoding": "mapping",
        "key": "t_uint256",
        "label": "mapping(uint256 => struct NFTTicketMarketplace.Event)",
        "numberOfBytes": "32",
        "value": "t_struct(Event)1936_storage"
      },
      "t_mapping(t_uint256,t_struct(MarketItem)2067_storage)": {
        "encoding": "mapping",
        "key": "t_uint256",
        "label": "mapping(uint256 => struct NFTTicketMarketplace.MarketItem)",
        "numberOfBytes": "32",
        "value": "t_struct(MarketItem)2067_storage"
      },
      "t_mapping(t_uint256,t_struct(TicketType)1981_storage)": {
        "encoding": "mapping",
        "key": "t_uint256",
        "label": "mapping(uint256 => struct NFTTicketMarketplace.TicketType)",
        "numberOfBytes": "32",
        "value": "t_struct(TicketType)1981_storage"
      },
      "t_mapping(t_uint256,t_uint256)": {
        "encoding": "mapping",
        "key": "t_uint256",
        "label": "mapping(uint256 => uint256)",
        "numberOfBytes": "32",
        "value": "t_uint256"
      },
      "t_string_storage": {
        "encoding": "bytes",
        "label": "string",
        "numberOfBytes": "32"
      },
      "t_struct(Counter)1582_storage": {
        "encoding": "inplace",
        "label": "struct Counters.Counter",
        "members": [
          {
            "astId": 1581,
            "contract": "contracts/NFTTicketMarketplace.sol:NFTTicketMarketplace",
            "label": "_value",
            "offset": 0,
            "slot": "0",
            "type": "t_uint256"
          }
        ],
        "numberOfBytes": "32"
      },
      "t_struct(Event)1936_storage": {
        "encoding": "inplace",
        "label": "struct NFTTicketMarketplace.Event",
        "members": [
          {
            "astId": 1925,
            "contract": "contracts/NFTTicketMarketplace.sol:NFTTicketMarketplace",
            "label": "owner",
            "offset": 0,
            "slot": "0",
            "type": "t_address"
          },
          {
            "astId": 1927,
            "contract": "contracts/NFTTicketMarketplace.sol:NFTTicketMarketplace",
            "label": "createdTime",
            "offset": 0,
            "slot": "1",
            "type": "t_uint256"
          },
          {
            "astId": 1929,
            "contract": "contracts/NFTTicketMarketplace.sol:NFTTicketMarketplace",
            "label": "startTime",
            "offset": 0,
            "slot": "2",
            "type": "t_uint256"
          },
          {
            "astId": 1931,
            "contract": "contracts/NFTTicketMarketplace.sol:NFTTicketMarketplace",
            "label": "endTime",
            "offset": 0,
            "slot": "3",
            "type": "t_uint256"
          },
          {
            "astId": 1933,
            "contract": "contracts/NFTTicketMarketplace.sol:NFTTicketMarketplace",
            "label": "id",
            "offset": 0,
            "slot": "4",
            "type": "t_string_storage"
          },
          {
            "astId": 1935,
            "contract": "contracts/NFTTicketMarketplace.sol:NFTTicketMarketplace",
            "label": "exist",
            "offset": 0,
            "slot": "5",
            "type": "t_bool"
          }
        ],
        "numberOfBytes": "192"
      },
      "t_struct(MarketItem)2067_storage": {
        "encoding": "inplace",
        "label": "struct NFTTicketMarketplace.MarketItem",
        "members": [
          {
            "astId": 2058,
            "contract": "contracts/NFTTicketMarketplace.sol:NFTTicketMarketplace",
            "label": "tokenId",
            "offset": 0,
            "slot": "0",
            "type": "t_uint256"
          },
          {
            "astId": 2060,
            "contract": "contracts/NFTTicketMarketplace.sol:NFTTicketMarketplace",
            "label": "seller",
            "offset": 0,
            "slot": "1",
            "type": "t_address_payable"
          },
          {
            "astId": 2062,
            "contract": "contracts/NFTTicketMarketplace.sol:NFTTicketMarketplace",
            "label": "owner",
            "offset": 0,
            "slot": "2",
            "type": "t_address_payable"
          },
          {
            "astId": 2064,
            "contract": "contracts/NFTTicketMarketplace.sol:NFTTicketMarketplace",
            "label": "price",
            "offset": 0,
            "slot": "3",
            "type": "t_uint256"
          },
          {
            "astId": 2066,
            "contract": "contracts/NFTTicketMarketplace.sol:NFTTicketMarketplace",
            "label": "sold",
            "offset": 0,
            "slot": "4",
            "type": "t_bool"
          }
        ],
        "numberOfBytes": "160"
      },
      "t_struct(TicketType)1981_storage": {
        "encoding": "inplace",
        "label": "struct NFTTicketMarketplace.TicketType",
        "members": [
          {
            "astId": 1964,
            "contract": "contracts/NFTTicketMarketplace.sol:NFTTicketMarketplace",
            "label": "eventId",
            "offset": 0,
            "slot": "0",
            "type": "t_uint256"
          },
          {
            "astId": 1966,
            "contract": "contracts/NFTTicketMarketplace.sol:NFTTicketMarketplace",
            "label": "createdTime",
            "offset": 0,
            "slot": "1",
            "type": "t_uint256"
          },
          {
            "astId": 1968,
            "contract": "contracts/NFTTicketMarketplace.sol:NFTTicketMarketplace",
            "label": "id",
            "offset": 0,
            "slot": "2",
            "type": "t_string_storage"
          },
          {
            "astId": 1970,
            "contract": "contracts/NFTTicketMarketplace.sol:NFTTicketMarketplace",
            "label": "price",
            "offset": 0,
            "slot": "3",
            "type": "t_uint256"
          },
          {
            "astId": 1972,
            "contract": "contracts/NFTTicketMarketplace.sol:NFTTicketMarketplace",
            "label": "startSellingTime",
            "offset": 0,
            "slot": "4",
            "type": "t_uint256"
          },
          {
            "astId": 1974,
            "contract": "contracts/NFTTicketMarketplace.sol:NFTTicketMarketplace",
            "label": "endSellingTime",
            "offset": 0,
            "slot": "5",
            "type": "t_uint256"
          },
          {
            "astId": 1976,
            "contract": "contracts/NFTTicketMarketplace.sol:NFTTicketMarketplace",
            "label": "totalLimit",
            "offset": 0,
            "slot": "6",
            "type": "t_int256"
          },
          {
            "astId": 1978,
            "contract": "contracts/NFTTicketMarketplace.sol:NFTTicketMarketplace",
            "label": "currentLimit",
            "offset": 0,
            "slot": "7",
            "type": "t_int256"
          },
          {
            "astId": 1980,
            "contract": "contracts/NFTTicketMarketplace.sol:NFTTicketMarketplace",
            "label": "exist",
            "offset": 0,
            "slot": "8",
            "type": "t_bool"
          }
        ],
        "numberOfBytes": "288"
      },
      "t_uint256": {
        "encoding": "inplace",
        "label": "uint256",
        "numberOfBytes": "32"
      }
    }
  }
}